:09000E00434D006700424D49001A
:10197D000414000000000208000002120000040E12
:0C198D0040000000020A0000020C0000F4
:101432001212771218C2121A65121AF51219E11253
:101442001AC1D280D281D290121AAD3091FDD28CC3
:101452002091FDC28C12181B7F057E00121A3120CA
:101462009306750A00750B01209406750A00750B28
:1014720002E50B6401450A7004C290D2ABE50B642D
:1014820002450A7004D290C2AB1216BCAB1BAA1A58
:10149200A919A818E4FFFE7D487C43120C09C00478
:1014A200C005C006C007E51325E0FDE51233FCE4E4
:1014B200120EA9D003D002D001D000120E07120ED4
:0714C200E28E0C8F0D80810A
:1016BC001217248F178E168D158C14E47B64FAF98F
:1016CC00F81210338F178E168D158C14AE08AF09C7
:1016DC00E4FCFDAB17AA16A915A814D31210D3401D
:1016EC0036851612851713E5139509F513E5129532
:1016FC0008F512FCAD13E4120EA9AB11AA10A90F38
:10170C00A80E120E077BCD7ACC794C783D120C0DBD
:08171C00120EE28E128F13225F
:101A65001217248F178E168D158C14E47B64FAF9E2
:091A7500F81210338E088F0922CB
:0D1AF500007F047E817D77DDFEDEFCDFFAE0
:011B020022C0
:101AC100438E4053890F758BCD758DD4C28FD28EC5
:031AD100D2AB2273
:1019FD00C2CCC2CDE4F5C975CB3C75CAB075CCB0BF
:0A1A0D0075CD3CD2AFD2ADD2CA2293
:03001B000210F7D9
:1010F700C0E0C0F0C083C082C0D075D000C000C0BF
:0D11070001C002C003C004C005C006C0073F
:101114000521AF21EF3395E0FEEF64644E600302D6
:10112400125CFBFDFF1215557B01E4FD7F121215C5
:10113400557B02E4FD7F2412155575340175351075
:10114400AB0BAA0AE4FD7F361215D97B037D02E4BA
:10115400FF1215557B047D027F10121555AB1BAA97
:101164001AA919A818E4FFFE7D487C43120C091241
:101174000EE2AB07AA067534037535107D027F2095
:101184001215D97BFF7A00790E7527107D027F38FE
:101194001217D77B057D04E4FF1215557B067D04E9
:1011A4007F10121555753404753510AB13AA127DD2
:1011B400047F201215D97BFF7A0079117527107DE1
:1011C400047F481217D77BFF7A0079137527107DA7
:1011D40006E4FF1217D77B077D067F181215557B8F
:1011E400087D067F28121555753403753510AB0D2F
:1011F400AA0C7D067F3A1215D9C3E50D9412E50CAD
:1012040064809480500D7B097D067F551215557BB3
:101214000A803ED3E50D9418E50C6480948040194F
:10122400E50D9418E50C64809480500D7B0B7D06CD
:101234007F551215557B0C8018D3E50D941CE50CD5
:101244006480948040127B0D7D067F551215557B7A
:081254000E7D067F65121555A1
:10125C00D007D006D005D004D003D002D001D000E6
:0B126C00D0D0D082D083D0F0D0E03290
:03002B0002178336
:10178300C0E0C0F0C083C082C0D075D000C000C02C
:1017930001C002C003C004C005C006C007C2AFC277
:1017A300CF1219C4C290753401753510AB0BAA0A58
:1017B300E4FD7F361215D9D2AFD007D006D005D0BD
:1017C30004D003D002D001D000D0D0D082D083D0B7
:0417D300F0D0E03240
:1019C400D280D281208009208006750A00750B011F
:0D19D40020A40920A406750A00750B02224C
:10002E000000000000000000002F0000000007008C
:10003E00070000147F147F1400242A7F2A12006206
:10004E0064081323003649552250000005030000B2
:10005E0000001C224100000041221C000014083E3A
:10006E0008140008083E0808000000A06000000800
:10007E000808080800006060000000201008040254
:10008E00003E5149453E0000427F40000042615112
:10009E004946002141454B31001814127F100027AC
:1000AE0045454539003C4A4949300001710905036F
:1000BE0000364949493600064949291E00003636A0
:1000CE000000000056360000000814224100001403
:1000DE0014141414000041221408000201510906E0
:1000EE0000324959513E007C1211127C007F494961
:1000FE004936003E41414122007F4141221C007F92
:10010E0049494941007F09090901003E4149497A9F
:10011E00007F0808087F0000417F41000020404119
:10012E003F01007F08142241007F40404040007F85
:10013E00020C027F007F0408107F003E4141413EC9
:10014E00007F09090906003E4151215E007F091911
:10015E0029460046494949310001017F0101003F0E
:10016E004040403F001F2040201F003F4038403F8E
:10017E0000631408146300070870080700615149F2
:10018E00454300007F41410000552A552A55000085
:10019E0041417F0000040201020400404040404003
:1001AE00000001020400002054545478007F48449B
:1001BE00443800384444442000384444487F0038D2
:1001CE005454541800087E0901020018A4A4A47CFB
:1001DE00007F080404780000447D400000408084C5
:1001EE007D00007F102844000000417F4000007C0D
:1001FE0004180478007C0804047800384444443819
:10020E0000FC242424180018242418FC007C080464
:10021E00040800485454542000043F444020003C3D
:10022E004040207C001C2040201C003C4030403CC4
:10023E00004428102844001CA0A0A07C0044645454
:10024E004C44141414141414000000000000000098
:10025E000000000000000000000000F80000000098
:10026E00000000333000000000100C06100C0600D9
:10027E00000000000000000040C07840C078400040
:10028E00043F04043F040400007088FC08300000A2
:10029E00001820FF211E0000F008F000E0180000FA
:1002AE0000211C031E211E0000F0088870000000B3
:1002BE001E2123241927211010160E000000000005
:1002CE000000000000000000000000E01804020022
:1002DE00000000071820400000020418E000000093
:1002EE000040201807000000404080F08040400091
:1002FE000202010F01020200000000F000000000E7
:10030E000101011F010101000000000000000000BA
:10031E0080B070000000000000000000000000002F
:10032E0000010101010101010000000000000000B8
:10033E000030300000000000000000008060180453
:10034E00006018060100000000E010080810E00030
:10035E00000F102020100F00001010F800000000F9
:10036E000020203F20200000007008080888700040
:10037E0000302824222130000030088888483000C0
:10038E000018202020110E000000C02010F80000E0
:10039E0000070424243F240000F808888808080079
:1003AE000019212020110E0000E01088881800008E
:1003BE00000F112020110E0000380808C838080060
:1003CE000000003F000000000070880808887000E0
:1003DE00001C222121221C0000E010080810E00061
:1003EE000000312222110F00000000C0C0000000EA
:1003FE00000000303000000000000080000000000F
:10040E000000806000000000000080402010080006
:10041E0000010204081020004040404040404000CF
:10042E0004040404040404000008102040800000AA
:10043E000020100804020100007048080808F000AF
:10044E000000003036010000C030C828E810E0007F
:10045E000718272423140B000000C038E00000000A
:10046E00203C23020227382008F888888870000074
:10047E00203F202020110E00C03008080808380048
:10048E00071820202010080008F808080810E000BF
:10049E00203F202020100F0008F88888E808100060
:1004AE00203F20202320180008F88888E808100034
:1004BE00203F200003000000C0300808083800006C
:1004CE0007182020221E020008F808000008F8086D
:1004DE00203F210101213F20000808F808080000F4
:1004EE000020203F2020000000000808F808080027
:1004FE00C08080807F00000008F888C0281808009F
:10050E00203F20012638200008F8080000000000D7
:10051E00203F20202020300008F8F800F8F80800CE
:10052E00203F003F003F200008F830C00008F808C8
:10053E00203F200007183F00E01008080810E000D8
:10054E000F10202020100F0008F808080808F000EF
:10055E00203F210101010000E01008080810E00012
:10056E000F18242438504F0008F8888888887000A7
:10057E00203F2000030C3020007088080808380047
:10058E000038202121221C00180808F8080818003D
:10059E000000203F2000000008F808000008F808BE
:1005AE00001F202020201F000878880000C838086F
:1005BE00000007380E010000F80800F80008F800E7
:1005CE00033C0700073C0300081868808068180881
:1005DE0020302C03032C30200838C800C8380800FF
:1005EE000000203F2000000010080808C83808004E
:1005FE002038262120201800000000FE02020200F2
:10060E000000007F40404000000C30C000000000A1
:10061E00000000010638C00000020202FE000000C9
:10062E00004040407F00000000000402020204006F
:10063E0000000000000000000000000000000000AC
:10064E008080808080808080000202040000000094
:10065E00000000000000000000008080808000008C
:10066E000019242222223F2008F80080800000007A
:10067E00003F112020110E0000000080808000003D
:10068E00000E112020201100000000808088F8004C
:10069E00000E112020103F2000008080808000007E
:1006AE00001F222222221300008080F088888818E2
:1006BE000020203F202000000000808080808000ED
:1006CE00006B94949493600008F800808080000082
:1006DE00203F210000203F2000809898000000005D
:1006EE000020203F2020000000000080989800008D
:1006FE0000C08080807F000008F8000080808000AD
:10070E00203F24022D302000000808F800000000D1
:10071E000020203F2020000080808080808080008C
:10072E00203F20003F20003F80800080808000001E
:10073E00203F210000203F200000808080800000AC
:10074E00001F202020201F008080008080000000DD
:10075E0080FFA12020110E0000000080808080000C
:10076E00000E112020A0FF808080800080808000FD
:10077E0020203F212000010000008080808080002A
:10078E000033242424241900008080E0808000009F
:10079E000000001F202000008080000000808000EC
:1007AE00001F202020103F2080808000008080804D
:1007BE0000010E30080601008080008000808080DD
:1007CE000F300C030C300F00008080008080800002
:1007DE000020312E0E31200080808000008080802D
:1007EE0080818E70180601000080808080808000DD
:1007FE000021302C2221300000000000807C0202FB
:10080E0000000000003F404000000000FF0000001C
:10081E0000000000FF0000000002027C80000000CB
:10082E000040403F000000000006010102020404E7
:10083E0000000000000000000808080808F8898E73
:10084E008888888808080800000000000000000062
:10085E00000000000000000000804020180700008B
:10086E004080403F0000000000000000000000003B
:10087E000000000000000000100C4444444445C633
:10088E004444444444140C000000000000000000E6
:10089E0000000000000000008040201E2040407F2D
:1008AE004444444444404000000000000000000066
:1008BE000000000000000000202020FF202000F893
:1008CE008888FF8888F80000000000000000000003
:1008DE0000000000000000001030100F0808001F7C
:1008EE000808FF08081F00000000000000000000BC
:1008FE000000000000000000000000FC545655549B
:10090E00545454FC00804000000000000000000021
:10091E00000000000000000040424223222212127A
:10092E000A46827F01000000000000000000000067
:10093E00000000000000000004040404F4949596E6
:10094E009494F4040404040000000000000000006D
:10095E00000000000000000000FE02027A4A4A4A2F
:10096E004A4A7A0282FE00000000000000000000E9
:10097E000000000000000000008060F8071010105A
:10098E00D0FFD0101010000000000000000000008A
:10099E000000000000000000010000FF1008040B22
:1009AE0008FF080B04081000000000000000000003
:1009BE000000000000000000101014D4545454FC29
:1009CE00525252D31210100000000000000000001E
:1009DE000000000000000000404050575555557F64
:1009EE0055555557504040000000000000000000D3
:1009FE000000000000000000101010FF1090003FDB
:100A0E0048484444444270000000000000000000CA
:100A1E0000000000000000000444827F010000FF7F
:100A2E004949494949FF000000000000000000004C
:100A3E00000000000000000090523410FF103452ED
:100A4E0080708F0808F80800000000000000000009
:100A5E000000000000000000829A566322528E00B1
:100A6E008040330C33408000000000000000000086
:100A7E0000000000000000008060F80700FC242445
:100A8E0025262424243C0000000000000000000065
:100A9E0000000000000000000000FF403C03FF09C2
:100AAE007F097F0989FF00000000000000000000A0
:100ABE000000000000000000106000FC04F4544C24
:100ACE0005FE045454F40400000000000000000071
:100ADE0000000000000000008442310F80854D555B
:100AEE00252725554D8580000000000000000000E0
:100AFE00000000000000000040484848FF484842FF
:100B0E00A29E82A2C2BE00000000000000000000F3
:100B1E00000000000000000080601F207F44444061
:100B2E004F484848484F40000000000000000000B9
:100B3E000000000000000000101014D4545454FCA7
:100B4E00525252D31210100000000000000000009C
:100B5E000000000000000000404050575555557FE2
:100B6E005555555750404000000000000000000051
:100B7E0000000000000000000000FE2222FE00FE29
:100B8E008282FE8282FE0000000000000000000053
:100B9E00000000000000000080601F42827F003FC6
:100BAE004040404040417000000000000000000046
:100BBE0000000000000000000000FE2222FE0044A3
:100BCE005840FF40504C00000000000000000000A4
:100BDE00000000000000000080601F42827F0404BD
:100BEE000404FF04040404000000000000000000E0
:080BFE000000000000000000EF
:101A1700EF4E60157D087C07ED1DAA0470011C4A76
:091A270070F6EF1F70EA1E80E763
:011A30002293
:09001E00D2B2D2B3C2B3C2B222C5
:07000300D2B2C2B3D2B32256
:0B1AE5001218FB121AF0AF041218FBDD
:051AF000D2B2C2B222D7
:0718F400AC0712001E7F7813
:1018FB00C2B2E4FEEEC3940874809480501BAD0713
:10190B00530580ED64807004D2B38002C2B3EF251F
:09191B00E0FFD2B2C2B20E80DB83
:0119240022A0
:0E1B03001218F4121AF0E4FF121AE5020003A1
:0E1B11001218F4121AF07F40121AE5020003B7
:10192500EF24B0FFEE33FEE4FDFC121940E4FDFCAC
:0B193500FFFE1219407F10E4FDFCFED5
:10194000AB07AA06ED4C6003021B11AF03121B0389
:011950002274
:02185A008F1EDF
:10185C00E4F9E9FF7E00C39408748094805023124D
:10186C001925E4F51FC3E51F948074809480500FF4
:10187C00AF1E7E007D017C00121940051F80E60919
:02188C0080D00A
:01188E002237
:1019A600D3EF9400EE940040147D657C18ED1D7015
:0D19B600011CED4C70F7EF1F70E61E80E382
:0119C3002201
:101A3100EF1FAA0670011E4A600FE4FDEDC3947BFF
:091A41007480948050EA0D80F3DA
:011A4A002279
:10195100A907ED24B0FFE433FEE4FDFC121940E9D0
:1019610054F0C4540F7E004410FFE4FDFC121940F2
:0C197100E9540FFF7E00E4FDFC02194069
:101A96007F8D12193CE4FDFC7F14FE121940E4FD13
:071AA600FC7FAFFE021940B6
:101AD400E4FDFC7F8D121936E4FDFC7FAEFE021995
:011AE40040C1
:1018C200E4F9E9FF7E00C3940874809480502212E8
:1018D2001925E4F53EC3E53E948074809480500E51
:1018E2007D017C00E4FFFE121940053E80E709807D
:0118F200D124
:0118F30022D2
:10188F00E4F9E9FF7E00C39408748094805023121A
:10189F001925E4F54DC3E54D948074809480500F65
:1018AF007D017C007F017E00121940054D80E60905
:0218BF0080D0D7
:0118C1002204
:041357008F398D3A03
:10135B00E4F53DF9EB24E0F53DD3EF947F748094F5
:10136B00804007E4F539053A053AE53C6410707A9C
:10137B00AD3AAF39121951E4F9E9C394087480946A
:10138B0080502975F010E53DA429F582E435F0F580
:10139B0083E5822456F582E5833402F583E493FFDB
:1013AB007E007D017C001219400980CDE53A04FDD9
:1013BB00AF39121951E4F9E9C39408748094805041
:1013CB006575F010E53DA429F582E435F0F583E56C
:1013DB0082245EF582E5833402F583E493FF7E007D
:1013EB007D017C001219400980CDAD3AAF3912193D
:1013FB0051E4F9E9C3940674809480502975F00682
:10140B00E53DA4242EF582E5F03400F583E5822931
:10141B00F582E43583F583E493FF7E007D017C0048
:06142B001219400980CDFA
:011431002298
:041A7E008F39A905EE
:101A82007F017E00AD0119ED6009AD397C00120FB6
:031A92009080F150
:011A9500222E
:0815D9008F308D318A328B3313
:1015E100E4F538F536E536C395345065C3E53495F1
:1015F1003614FD7F0A121A7EAC32AD33CFCDCFCE79
:10160100CCCE120FA27C007D0A120FA28D37E538D5
:101611007023E53414FFE536C39F5019E537701286
:10162100E535C3138536F0A42530FF85353C7B2095
:101631008016753801E535C3138536F0A42530FFD2
:10164100E5372430FB85353CAD3112135705368023
:011651009404
:011652002275
:0A17D7008F228D238B248A2589269A
:1017E100E4F528AB24AA25A9268528827583001251
:1017F1000F63FB602485273CAD23AF22121357747E
:10180100082522F522D39478748094804007E4F56A
:091811002205230523052880CAE5
:01181A0022AB
:061555008F228D238B2480
:10155B00E4F525121951E4F9E9C3941074809480D1
:10156B00502B75F040E524A42446F582E5F03408B1
:10157B00F583E58229F582E43583F583E493FF7ED9
:10158B00007D017C0012194005250980CBE5230461
:10159B00FDAF22121951E4F9E9C3941074809480C1
:1015AB00502B75F040E524A42466F582E5F0340851
:1015BB00F583E58229F582E43583F583E493FF7E99
:0D15CB00007D017C0012194005250980CB30
:0115D80022F0
:041653008F428B44F3
:10165700E4F549F54AE5455407700BE545131313BF
:10166700541FF54C800AE545131313541F04F54C1A
:101677008D4CE54CC39545503BAD4CAF42121951CB
:1016870085424BE54BC395445026AB46AA47A9482C
:10169700054AE54AAE497002054914F5828E831260
:1016A7000F63FF7E007D017C00121940054B80D33C
:0416B700054C80BEA0
:0116BB00220C
:10127700E4FDFC7FAEFE12192FE4FDFC7F40FE1259
:101287001940E4FDFC7FB0FE121940E4FDFC7F81AC
:10129700FE121940E4FDFC7FFFFE121940E4FDFC3D
:1012A7007FA1FE121940E4FDFC7FA6FE121940E45F
:1012B700FDFC7FA8FE121940E4FDFC7F3FFE1219DA
:1012C70040E4FDFC7FC8FE121940E4FDFC7FD3FE1D
:1012D700121940E4FDFCFFFE121940E4FDFC7FD526
:1012E700FE121940E4FDFC7F80FE121940E4FDFC6C
:1012F7007FD8FE121940E4FDFC7F05FE121940E479
:10130700FDFC7FD9FE121940E4FDFC7FF1FE1219A6
:1013170040E4FDFC7FDAFE121940E4FDFC7F12FE7B
:10132700121940E4FDFC7FDBFE121940E4FDFC7F4F
:1013370030FE121940E4FDFC7F8DFE121940E4FDDA
:10134700FC7F14FE121940E4FDFC7FAFFE0219403A
:03001700000022C4
:10172400D2B0120017C2B1E4F541F540F53FF53EE1
:1017340020B0FDE4FBEBC39418748094805030D245
:10174400B1AF41AE40AD3FAC3E78011210E48F41E1
:101754008E408D3F8C3EC2B130B011EF2401F54173
:10176400E43EF540E43DF53FE43CF53E0B80C6D253
:0E177400B1120017C2B1AF41AE40AD3FAC3E66
:011782002244
:0C199900021C0000041800000000C10047
:1019E100758921759850E4F58CF58A758DFD758B97
:0C19F100FDD2A9D28CD28ED299D2AF22A6
:101AAD00D2920000000000000000000000000000C5
:041ABD0000C29222AF
:10181B00AF8CEFFEAD8A7C00E42DF51DEC3EF51C84
:10182B00E4F58CF58AAC1CAD1D120EA97B297A5CF4
:10183B0079EF783F120CFEE4FBFA79C87842120E6E
:0F184B00078F1B8E1A8D198C18300002C20022D5
:101A4B007C64EF4E60131CEC60087D0A1DED60F6A4
:091A5B0080FAEF1F70EC1E80E917
:011A6400225F
:03000B00020027C9
:03002700D20032D2
:100C0600020F4EE86480F8E933E83360110460F0BF
:100C1600ED33EC337009E8FCE9FDEAFEEBFF220454
:100C260060DED3EB9FEA9EE99DE8C2E78CF0C2F74F
:100C360095F0400CE8CCF8E9CDF9EACEFAEBCFFB1B
:100C4600120F1985D0F05804700320D5B3E804704C
:100C5600075002B2D5020F5892D5EC0460F7E4CCE7
:100C6600C0E0C398F8603B94186008400DD0E0FBE4
:100C7600020F30E4FBFAC9FC8028E830E406E4C938
:100C8600FBE4CAFCE830E305E4C9CACBFCE8540738
:100C96006010F8C3E913F9EA13FAEB13FBEC13FC43
:100CA600D8F130F52FC3E49CFCEF9BFFEE9AFEEDE6
:100CB60099FDD0E0FBEF4E4D4C701222DB03020F84
:100CC60055EC2CFCEF33FFEE33FEED33FDED30E754
:100CD600EB020F30EF2BFFEE3AFEED39FDD0E0FBD5
:100CE60050130BBB0003020F58ED13FDEE13FEEF7E
:080CF60013FFEC13FC020F30A8
:100CFE00EC4D6011E8497017ED33EC3304600DE4F0
:100D0E00FCFFFEFD22E933E8330470F8020F4E12A9
:100D1E000F1958046009E4CC2481500628500902AA
:100D2E000F58284003020F55C0E0EB4A7044B980BB
:100D3E0006D0E0FB020F44EF4E701CBD8008EBFFA7
:100D4E00EAFEE9FD80EBE98DF0A4FEE5F0020DE789
:100D5E00E9CDF9EAFEEBFFEF89F0A4FCE5F0CE89D0
:100D6E00F0A42EFFE435F0CD89F0A42DFEE435F08D
:100D7E008067EF4E7005BD80D780C3EF8BF0A4ACBB
:100D8E00F0EE8BF0A42CFCE435F0F8EF8AF0A42CF6
:100D9E00E5F038FCE433CB8DF0A42CFCE5F03BF809
:100DAE00EE8AF0A42CFCE5F038F8E433CF89F0A4F9
:100DBE002CFCE5F038CF3400CE89F0A42FFFE5F0FF
:100DCE003EFEE433C98DF0A42EFEE5F039CD8AF057
:100DDE00A42FFFE5F03EFEE43DFD33D0E0FB5007CF
:100DEE000BBB000F020F58EC2CFCEF33FFEE33FE63
:060DFE00ED33FD020F3091
:100E0400020F58EC5D046005E859047003020F4EAC
:100E1400120F19580460F6EC4860F2EC7004FDFE01
:100E2400FF22C860DB2481C85009C39860025006C1
:100E3400020F559850CAF582E9294B4A7005AB82D6
:100E4400020F4475F0007C1A7880C3EF9BEE9AED94
:100E540099400DC3EF9BFFEE9AFEED99FDE842F039
:100E6400DC23ACF0D0E0FFD0E0FED0E0FDAB82208C
:100E7400E7101BEB60BAEC2CFCEF33FFEE33FEED16
:100E840033FD020F30E803F830E705C0F075F000D9
:100E9400EF2FFFEE33FEED33FD40B830E7C280AAFA
:100EA40075F020800E75F010800575F0087D007EC9
:100EB400007F003392D530D5031210C5EC334010B7
:100EC400EF33FFEE33FEED33FDEC33FCD5F0ED22D2
:0E0ED400E5F0247EA2D513CC92E7CDCEFF220E
:100EE200EDD2E7CD33EC3392D524814006E4FFFE08
:100EF200FDFC22FCE4CFCECDCC24E0501174FF8067
:100F0200EDC3CC13CCCD13CDCE13CECF13CF047003
:070F1200F030D5DE0210C52E
:100F1900E9D2E7C933E833F892D5EDD2E7CD33EC1E
:070F290033FC5002B2D52297
:100F3000EC30E7100FBF000C0EBE00080DBD000422
:100F40000BEB6014A2D5EB13FCED92E7FD2274FFCE
:100F5000FCFDFEFF22E480F8A2D574FF13FC7D8027
:030F6000E480EF3B
:030000000214C91E
:0C14C900787FE4F6D8FD75814D02151007
:100F6300BB010CE58229F582E5833AF583E0225043
:100F730006E92582F8E622BBFE06E92582F8E2228D
:0D0F8300E58229F582E5833AF583E49322A7
:100F9000EF8DF0A4A8F0CF8CF0A428CE8DF0A42E75
:020FA000FE222F
:100FA200BC000BBE0029EF8DF084FFADF022E4CC33
:100FB200F875F008EF2FFFEE33FEEC33FCEE9DECFC
:100FC200984005FCEE9DFE0FD5F0E9E4CEFD22ED42
:100FD200F8F5F0EE8420D21CFEADF075F008EF2F8C
:100FE200FFED33FD4007985006D5F0F222C398FD7D
:050FF2000FD5F0EA221A
:100FF70075F008758200EF2FFFEE33FECD33CDCCB1
:1010070033CCC58233C5829BED9AEC99E582984033
:101017000CF582EE9BFEED9AFDEC99FC0FD5F0D610
:10102700E4CEFBE4CDFAE4CCF9A88222B800C1B93A
:101037000059BA002DEC8BF084CFCECDFCE5F0CB78
:10104700F97818EF2FFFEE33FEED33FDEC33FCEBB1
:1010570033FB10D703994004EB99FB0FD8E5E4F96C
:10106700FA227818EF2FFFEE33FEED33FDEC33FC59
:10107700C933C910D7059BE99A4007EC9BFCE99A4D
:10108700F90FD8E0E4C9FAE4CCFB2275F010EF2F92
:10109700FFEE33FEED33FDCC33CCC833C810D70792
:1010A7009BEC9AE899400AED9BFDEC9AFCE899F8CD
:0E10B7000FD5F0DAE4CDFBE4CCFAE4C8F92260
:0E10C500C3E49FFFE49EFEE49DFDE49CFC223C
:1010D300EB9FF5F0EA9E42F0E99D42F0E89C45F073
:0110E30022EA
:1010E400E8600FEFC333FFEE33FEED33FDEC33FC6A
:0310F400D8F1220E
:1014D500021432E493A3F8E493A34003F68001F2E7
:1014E50008DFF48029E493A3F85407240CC8C33318
:1014F500C4540F4420C8834004F456800146F6DFE7
:10150500E4800B010204081020408090197DE47EE0
:10151500019360BCA3FF543F30E509541FFEE493DB
:10152500A360010ECF54C025E060A840B8E493A3A2
:10153500FAE493A3F8E493A3C8C582C8CAC583CACD
:10154500F0A3C8C582C8CAC583CADFE9DEE780BE85
:0119A5000041
:00000001FF
